:020000040800F2
:1000000000000220F58B0108450C0008470C000891
:10001000490C00084B0C00084D0C000800000000C3
:100020000000000000000000000000003D27010863
:100030004F0C000800000000F9270108652801089E
:10004000458C0108458C0108458C0108458C010848
:10005000458C0108458C0108458C0108458C010838
:10006000458C0108458C0108458C0108458C010828
:10007000458C0108458C0108458C0108458C010818
:10008000458C0108458C0108458C0108458C010808
:10009000458C0108458C0108458C0108197301083D
:1000A000458C0108ED700108458C010809710108B3
:1000B000458C0108458C0108458C0108458C0108D8
:1000C000458C0108458C0108458C0108458C0108C8
:1000D000458C0108458C0108458C0108458C0108B8
:1000E000458C0108458C0108458C0108458C0108A8
:1000F000458C0108458C010819720108458C0108DE
:10010000458C0108458C010899780108458C010847
:10011000458C0108458C0108510C0008458C0108EC
:10012000690C0008458C0108458C0108458C0108C4
:10013000458C0108458C0108458C0108458C010857
:10014000458C0108458C0108458C0108790C000894
:10015000458C0108458C0108458C0108458C010837
:10016000458C0108458C0108458C0108458C010827
:10017000458C0108458C0108458C010800000000F1
:08018000458C0108458C0108C3
:1001900010B5054C237833B9044B13B10448AFF3C1
:1001A00000800123237010BDFC0700200000000028
:1001B0001CC9010808B5034B1BB103490348AFF341
:1001C000008008BD00000000000800201CC90108D4
:1001D00000B585B0002300930193029303935D481B
:1001E0005D4A02604FF44032426083600122026146
:1001F000027680F82030C36258498162C3600C21C6
:10020000C16180F83020436101F041FA002879D1C2
:1002100000230093012301930423029369464D4870
:1002200001F078FE002870D101230093022301938E
:100230006946484801F06EFE002869D10223009308
:10024000032301936946434801F064FE002862D10C
:10025000032300930423019369463E4801F05AFEAC
:1002600000285BD106230093052301936946394892
:1002700001F050FE002854D1072300930623019378
:100280006946344801F046FE00284DD1082300930A
:100290000723019369462F4801F03CFE002846D110
:1002A000092300930823019369462A4801F032FE8E
:1002B00000283FD10A23009309230193694625486A
:1002C00001F028FE002838D10B2300930A23019364
:1002D0006946204801F01EFE90BB0C2300930B23BF
:1002E000019369461B4801F015FE60BB0D23009386
:1002F0000C2301936946174801F00CFE30BB05B092
:100300005DF804FB00F028FC82E700F025FC8BE799
:1003100000F022FC92E700F01FFC99E700F01CFCC3
:10032000A0E700F019FCA7E700F016FCAEE700F02C
:1003300013FCB5E700F010FCBCE700F00DFCC3E7D0
:1003400000F00AFCC9E700F007FCCFE700F004FC6E
:10035000D5E700BF785B0020002001400100000FBE
:1003600070B58AB000230593069307930893099309
:10037000026803F1804303F590339A4201D00AB03A
:1003800070BD04460025019503F58C335A6C42F488
:1003900080725A645A6C02F480720192019A02953A
:1003A0001A6B42F004021A631A6B02F00402029202
:1003B000029A03951A6B42F001021A631A6B02F05B
:1003C00001020392039A04951A6B42F002021A6327
:1003D0001B6B03F002030493049B0F230593032676
:1003E000069605A9174805F0A9FBCF2305930696A5
:1003F000079505A9144805F0A1FB059606960795F3
:1004000005A9124805F09AFB1148124B036045609C
:100410008560C5604FF4806303614FF400634361FE
:100420004FF4005383614FF48073C36105624562EA
:1004300003F07BFB18B9064BA3639C639FE700F0B6
:100440008BFBF8E700080240000002400004024075
:10045000D85B00201064024002680D4B9A4200D025
:10046000704710B504460B4A536C23F480735364F1
:100470000F21094805F050FCCF21084805F04CFC3D
:100480000321074805F048FCA06B03F0B7FB10BD43
:1004900000200140003802400008024000000240F5
:1004A0000004024008B50B480B4B03601023436067
:1004B00000238360C36003614361037643768376E0
:1004C000C3760377437702F03CFA00B908BD00F029
:1004D00043FBFBE7385C00200064004000B589B0B6
:1004E0000023039304930593069307930268144B28
:1004F0009A4202D009B05DF804FB0021019103F596
:10050000EA331A6C42F000721A641A6C02F000723C
:100510000192019A02911A6B42F008021A631B6B56
:1005200003F008030293029B032303930222049225
:1005300006930923079303A9024805F0FFFAD9E7B8
:1005400000640040000C024008B50268064B9A4265
:1005500000D008BD054A136C23F000731364032117
:10056000034805F0D9FBF4E700640040003802407E
:10057000000C024000B583B00023009301931048A3
:10058000104B036003F059F880B9002200920192E9
:1005900069460B4803F0A4F958B910226946084887
:1005A00003F09EF940B903B05DF804FB00F0D4FA03
:1005B000EBE700F0D1FAF0E700F0CEFAF3E700BF86
:1005C000605C00200074004010B588B000230393E5
:1005D00004930593069307930268164B9A4201D041
:1005E00008B010BD0024019403F5E2331A6C42F008
:1005F00000521A641A6C02F000520192019A02949D
:100600001A6B42F001021A631B6B03F001030293A1
:10061000029B302303930323049303A9064805F0A8
:100620008DFA22462146362002F0AEFE362002F038
:10063000DDFED5E7007400400000024008B5026806
:10064000084B9A4200D008BD074A136C23F00053B0
:1006500013643021054805F05FFB362002F0D4FE1C
:10066000F1E700BF00740040003802400000024083
:1006700000B583B000220192094B196B41F480014F
:1006800019631B6B03F480030193019B0521382040
:1006900002F07AFE382002F0A9FE03B05DF804FBF8
:1006A0000038024010B582B017F01CF9274C2046E4
:1006B00016F0D5F9A4F12C0076238384244B8362B1
:1006C000214616F0D5F900B900BE0C222149224876
:1006D00001F03AFA4FF47A71204B186810F086FF57
:1006E0000A211F4B186810F081FF1E4B1A691A610E
:1006F0001A6A42F4885242F011021A62DA6842F031
:100700001F02DA601A6842F001021A604FF080425C
:10071000136843F00103136002F54062136843F06D
:100720000103136002F57842136843F0010313607C
:1007300040F64543009347F6B7231A46642100204C
:1007400016F021FF012010F08DFEFBE79C630020D6
:100750008C5C0020C05B0020785B0020745C002073
:10076000805C002000000140704700207047704707
:1007700010B51A4C234600220121194810F0BCFE86
:10078000184B186004F1100300221146164810F0AF
:10079000B3FE164B186004F1200300220121144817
:1007A00010F0AAFE134B186004F130020021124829
:1007B00010F000FB114B186004F1540200211048A6
:1007C00010F0F8FA0F4B186004F1780200210E487F
:1007D00010F0F0FA0D4B186010BD00BF38C90108C9
:1007E000DD670108745C0020C9670108785C00209F
:1007F0005D700108805C0020A50600087C5C00207C
:10080000E1630108885C002001650108845C002028
:1008100070B58CB000240794089409940A940B9442
:100820000194354B1A6B42F004021A631A6B02F002
:1008300004020192019A02941A6B42F080021A6338
:100840001A6B02F080020292029A03941A6B42F031
:1008500001021A631A6B02F001020392039A0494D4
:100860001A6B42F002021A631A6B02F0020204923F
:10087000049A05941A6B42F010021A631A6B02F084
:1008800010020592059A06941A6B42F008021A6348
:100890001B6B03F008030693069B184D012249F2D7
:1008A0003C01284605F0D9FA4FF470730793144BB6
:1008B0000893099407A9284605F040F94FF410431E
:1008C00007930126089609940A9407A9284605F07B
:1008D00035F93C230793089609960A9407A92846F8
:1008E00005F02CF922462146172002F04DFD172075
:1008F00002F07CFD0CB070BD00380240000C0240DC
:100900000000211008B50B480B4B03600B4B4360F4
:1009100000238360C3604FF48042026143618361BE
:10092000C361036206F013F800B908BD00F014F9C2
:10093000FBE700BF8C5C002000540040801A0600DA
:1009400030B589B00023039304930593069307936E
:100950000268154B9A4201D009B030BD00250195BF
:10096000124C236B43F002032363236B03F0020357
:100970000193019BC0230393122304930123059346
:10098000032306930423079303A9094805F0D6F827
:100990000295236C43F400132364236C03F40013C7
:1009A0000293029BD8E700BF005400400038024089
:1009B0000004024008B50268064B9A4200D008BD08
:1009C000054A136C23F400131364C021034805F097
:1009D000A3F9F4E70054004000380240000402404C
:1009E00030B595B03022002108A818F080FB002413
:1009F0000394049405940694079401941C4B1A6C78
:100A000042F080521A641B6C03F080530193019BE7
:100A10000294184B1A6842F480421A601B6803F46F
:100A200080430293029B012308934FF48033099380
:100A300002250E954FF480030F93082310934FF473
:100A4000A873119312950723139308A80AF0F4F8DA
:100A50000F230393049505944FF4A05306934FF48A
:100A600080530793052103A80AF0A0FB15B030BD01
:100A7000003802400070004010B584B02B4B0122BA
:100A80001A610022DA602A4A1A60042119815A6028
:100A900040225A8100F032FD00F020FD254BDA683B
:100AA00042F00102DA609A6842F001029A609A68A4
:100AB00042F008029A6064231F49204A05E010783A
:100AC0000870013B9BB201310132002BF7D100F0DD
:100AD00073FCFFF785FFFFF79BFEFFF7C9FDFFF7EC
:100AE00049FD00F063FAFFF773FB00F0B9F9FFF777
:100AF000D9FCFFF707FF00F0C9FA00F01FFA0B4C12
:100B000004F110030FCB8DE80F0094E80F0016F0EE
:100B10002DFC10F00DF8FFF72BFE10F055F810F03B
:100B200007F8FFF725FE10F04FF8FEE74C640020B1
:100B3000000C0240002004E0A4630020F4C9010876
:100B400008B50268034B9A4200D008BD00F04EFC85
:100B5000FBE700BF00100040704700BF00B583B046
:100B6000002200920D4B596C41F480415964596C3C
:100B700001F48041009100990192196C41F080517B
:100B800019641B6C03F080530193019B0F216FF0DC
:100B9000010002F0F9FB03B05DF804FB00380240ED
:100BA00010B588B000220146362002F0EDFB362059
:100BB00002F01CFC00240194144B1A6C42F0100249
:100BC0001A641B6C03F010030193019B02A903A894
:100BD0000AF028FC0AF0A0FB43000D48A0FB032309
:100BE0009B0C013B0B480C4A026040F2E732C260AA
:100BF0004360046184600BF02FFD10B1012008B048
:100C000010BD04480AF084FFF9E700BF0038024035
:100C100083DE1B43685D002000100040034B1A6810
:100C2000D36823F00103D360704700BF685D0020E4
:100C3000034B1A68D36843F00103D360704700BFC9
:100C4000685D00207047FEE7FEE7FEE7FEE77047BD
:100C500008B5034802F014FE02480BF0AEFB08BDD5
:100C6000605C0020685D002008B5024803F042F98E
:100C700008BD00BFD85B002008B5024809F044FA5F
:100C800008BD00BF386C002070470120704708B5D0
:100C900017F0DAFF162303604FF0FF3008BD08B5E8
:100CA0004FF0FF31FFF7F3FFFEE7F8B50D461746AB
:100CB000002405E06E1CAFF3008028700134354637
:100CC000BC42F7DB3846F8BD70B51646002405E097
:100CD0004D1C0878AFF3008001342946B442F7DB9D
:100CE000304670BD08B503460B4A126842B10A4A45
:100CF000106803446A46934206D8074A136008BD49
:100D00000649054A1160F2E717F09EFF0C230360C5
:100D10004FF0FF3008BD00BF1808002050700020C1
:100D20004FF0FF3070474FF400534B600020704786
:100D300001207047002070470EB44FF0FF3003B021
:100D4000704708B517F080FF0A2303604FF0FF30AB
:100D500008BD08B517F078FF022303604FF0FF309D
:100D600008BD4FF0FF3070474FF400534B60002038
:100D7000704708B517F068FF1F2303604FF0FF307E
:100D800008BD08B517F060FF0B2303604FF0FF307C
:100D900008BD08B517F058FF0C2303604FF0FF3073
:100DA00008BD00BF054BD3F8882042F47002C3F899
:100DB00088204FF000629A60704700BF00ED00E0AD
:100DC000224B9B6803F00C03042B14D0082B16D085
:100DD0001BB11F4A1F4B1A6002E01D4A1D4B1A60CF
:100DE0001A4B9B68C3F303131B4AD15C194A13685F
:100DF000CB4013607047194A164B1A60F0E7134B4B
:100E00005A685B6803F03F0312F4800F13D0134A53
:100E1000B2FBF3F20D4B5B68C3F3881303FB02F3E1
:100E20000A4A5268C2F3014201325200B3FBF2F3A4
:100E3000084A1360D4E7064AB2FBF3F2034B5B683F
:100E4000C3F3881303FB02F3EAE700BF0038024054
:100E50000024F40008000020D4C9010800127A0020
:100E600000B58BB00023069307930893099304936E
:100E7000059300930193029303932E482E4A026038
:100E80000F22426083604FF6FF72C26003614361CC
:100E900083610BF0E1FB002834D10AA94FF48053A1
:100EA00041F8103D23480BF028FF70BB21480BF0A0
:100EB0001EFC68BB00230493059304A91D480DF094
:100EC00019FE40BB0022009201230193029203927B
:100ED000694618480BF0BAFD00BB04226946154864
:100EE0000BF0B4FDE8B90822694612480BF0AEFDDC
:100EF000D0B90C2269460F480BF0A8FDB8B90BB069
:100F00005DF804FBFFF728FEC7E7FFF725FECDE7F6
:100F1000FFF722FECEE7FFF71FFED3E7FFF71CFE29
:100F2000DBE7FFF719FEDEE7FFF716FEE1E7FFF765
:100F300013FEE4E7285E00200000014000B587B002
:100F4000002302930393049305930093019316489F
:100F50004FF080420260A722426083604FF0FF3270
:100F6000C260036183610BF077FB98B906A94FF467
:100F7000805341F8103D0C480BF0BFFE68B90023C8
:100F800000930193694608480DF0B4FD40B907B0DD
:100F90005DF804FBFFF7E0FDE8E7FFF7DDFDEEE7B6
:100FA000FFF7DAFDF3E700BF685E002000B58FB001
:100FB00000230A930B930C930D93089309930193C9
:100FC0000293039304930593069307932D482E4AA7
:100FD00002600722426083604FF0FF32C26003610B
:100FE00083610BF039FB002834D10EA94FF48053F4
:100FF00041F8103D23480BF080FE70BB21480BF0F8
:1010000044FB68BB00230893099308A91D480DF011
:1010100071FD40BB0022019202920392059201A948
:1010200018480BF029FC08BB04220DEB02011548FF
:101030000BF022FCE8B9082201A912480BF01CFCB5
:10104000D0B90C2201A90F480BF016FCB8B90FB0AB
:101050005DF804FBFFF780FDC7E7FFF77DFDCDE7F7
:10106000FFF77AFDCEE7FFF777FDD3E7FFF774FDD3
:10107000DAE7FFF771FDDEE7FFF76EFDE1E7FFF767
:101080006BFDE4E7E85D0020000C004010B596B071
:1010900000241294139414941594109411940994A8
:1010A0000A940B940C940D940E940F9420222146D4
:1010B00001A818F01CF83948394B0360A723436096
:1010C00084604FF6FF73C3600461446184610BF078
:1010D000C3FA002847D116A94FF4805341F8103DB8
:1010E0002E480BF00AFE002840D12C480BF0CDFA18
:1010F00000283ED100231093119310A927480DF02A
:10110000F9FC002838D1002209920A920B920C9225
:101110000D920E920F9209A920480BF0ADFB70BB07
:10112000042209A91D480BF0A7FB58BB082209A9F6
:101130001A480BF0A1FB40BB0C2209A917480BF081
:101140009BFB28BB00230193029303930493059315
:101150004FF400520692089301A910480DF00EFDBD
:10116000C8B916B010BDFFF7F7FCB4E7FFF7F4FC01
:10117000BBE7FFF7F1FCBDE7FFF7EEFCC3E7FFF7C6
:10118000EBFCCDE7FFF7E8FCD0E7FFF7E5FCD3E7A2
:10119000FFF7E2FCD6E7FFF7DFFCE2E7A85D0020FF
:1011A0000004014030B58BB00023059306930793EC
:1011B0000893099303683A4A93420AD0B3F1804FE7
:1011C00039D0384A934243D0374A934254D00BB077
:1011D00030BD00240094354B5A6C42F001025A6431
:1011E0005A6C02F001020092009A01941A6B42F0CC
:1011F00010021A631B6B03F010030193019B4FF461
:10120000D4430593022506950123099305A928488F
:1012100004F094FC22462946192002F0B5F8192062
:1012200002F0E4F8224629461B2002F0ADF81B200C
:1012300002F0DCF8CBE7002302931C4B1A6C42F05F
:1012400001021A641B6C03F001030293029BBEE7C8
:1012500000220392154B196C41F0080119641B6CB4
:1012600003F008030393039B0221322002F08CF861
:10127000322002F0BBF8AAE7002104910B4B5A6C14
:1012800042F002025A645B6C03F002030493049B75
:101290000A462E2002F078F82E2002F0A7F896E7F2
:1012A00000000140000C00400004014000380240F2
:1012B0000010024008B503681C4A934209D0B3F1FC
:1012C000804F18D01A4A93421BD01A4A934222D018
:1012D00008BD02F59C32536C23F0010353644FF4B4
:1012E000D441154804F018FD192002F08DF81B2098
:1012F00002F08AF808BD114A136C23F0010313644D
:1013000008BD02F50B32136C23F00803136432207E
:1013100002F07AF808BD02F59A32536C23F002030A
:1013200053642E2002F070F8D2E700BF00000140A5
:10133000000C004000040140001002400038024050
:101340007047704710B5094B4FF0FF321A62002406
:101350001C625A625C621A611C615A615C619A612A
:101360009C61FFF7EEFF204610BD00BF0038024031
:1013700010B504460E4B18784FF47A73B3FBF0F3B4
:101380000C4A1068B0FBF3F002F064F868B90F2C57
:1013900001D9012010BD002221464FF0FF3001F09D
:1013A000F3FF034B5C60002010BD012010BD00BFA7
:1013B0000C0000200800002008B50B4B1A6842F40E
:1013C00000721A601A6842F480621A601A6842F465
:1013D00080721A60032001F0C5FF0020FFF7E0FBD8
:1013E000FFF7BCFB002008BD003C0240034A116827
:1013F000034B1B780B441360704700BFA85E0020AE
:101400000C000020014B1868704700BFA85E002048
:10141000014B5868704700BF0C00002010B5084B06
:101420001C78844209D018705868FFF7B9FB03464E
:1014300008B1034A1470184610BD0023FBE700BF33
:101440000C000020014B1878704700BF0C000020F2
:1014500038B50446FFF7D6FF0546B4F1FF3F02D08A
:10146000044B1B781C44FFF7CDFF401B8442FAD885
:1014700038BD00BF0C000020024A136823F00203AD
:101480001360704710E000E0024A136843F0020363
:101490001360704710E000E0004870470007070144
:1014A000014B1868000C7047002004E0024B1868DC
:1014B000C0F30B00704700BF002004E0024A5368ED
:1014C00043F0010353607047002004E0024A536870
:1014D00023F0010353607047002004E0024A536880
:1014E00043F0020353607047002004E0024A53684F
:1014F00023F0020353607047002004E0024A53685F
:1015000043F0040353607047002004E0024A53682C
:1015100023F0040353607047002004E00122014BD4
:101520001A607047000427420022014B1A6070477E
:1015300000042742014B1868704700BF107AFF1F54
:10154000014B1868704700BF147AFF1F014B1868E1
:10155000704700BF187AFF1F4A4B5A6822F4403286
:101560005A605A6841680A435A600268536823F413
:101570008073536002685368016943EA0123536032
:101580000268536823F040735360026853688168AF
:101590000B4353600268936823F40063936002680E
:1015A0009368C1680B439360826A374B9A424BD071
:1015B0000268936823F07063936002689368816A9D
:1015C0000B4393600268936823F040539360026872
:1015D0009368C16A0B4393600268936823F0020327
:1015E000936002689368017E43EA4103936090F838
:1015F0002030002B33D10268536823F4006353601A
:101600000268D36A23F47003D3620168CB6AC269AB
:10161000013A43EA0253CB620268936823F40073F1
:1016200093600268936890F8301043EA4123936016
:101630000268936823F48063936002689368416949
:1016400043EA8123936070470268936823F07063D4
:1016500093600268936823F040539360BCE702688C
:10166000536843F4006353600268536823F4604393
:10167000536001684B68426A013A43EA42334B6067
:10168000BEE700BF002301400100000F704738B3E0
:1016900010B50446036C43B1236C13F0100F0BD04C
:1016A0000120002384F83C3010BDFEF759FE0023D2
:1016B000636484F83C30EFE7236C23F4885323F011
:1016C000020343F0020323642046FFF745FF002096
:1016D0006064236C23F0030343F001032364E0E719
:1016E000012070477047C8B110B50446036C43F041
:1016F000020303640268936823F0010393600368A4
:101700009B6813F0010F03D0002084F83C0010BD4B
:10171000FEF7A2FE002363642364F5E7012070470F
:1017200082B00023019390F83C30012B7DD001233F
:1017300080F83C3003689A6812F0010F13D19A6860
:1017400042F001029A603E4B1B683E4AA2FB032313
:101750009B0C03EB4303019302E0019B013B0193CC
:10176000019B002BF9D10268936813F0010F5FD041
:10177000036C23F4E06323F0010343F480730364F8
:10178000536813F4806F05D0036C23F4405343F483
:1017900080530364036C13F4805F1BD0436C23F00D
:1017A00006034364002380F83C306FF0220313608B
:1017B000254B5B6813F01F0F27D10368234A934220
:1017C00019D002F58072934207D0214A93420BD080
:1017D00000202BE000234364E4E702F50072526826
:1017E00012F01F0F07D0F0E702F58072526802F086
:1017F0001F020F2A1ED89A6812F0405F1CD19A6807
:1018000042F080429A60002010E003680F4A934241
:1018100001D000200AE09A6812F0405F0ED19A6869
:1018200042F080429A60002000E0022002B070473F
:101830000020FBE70020F9E70020F7E70020F5E7AC
:101840000800002083DE1B430023014000200140EC
:101850000022014090F83C30012B19D0012380F880
:101860003C300268936823F00103936003689B682F
:1018700013F0010F07D1036C23F4885323F0010305
:1018800043F001030364002380F83C30184670479E
:101890000220704703689A6812F4806F03D09B6837
:1018A00013F4807F1CD170B50D460446FFF7AAFDE6
:1018B000064623681A6812F0020F1AD1B5F1FF3FED
:1018C000F7D025B1FFF79EFD801B8542F1D2236C36
:1018D00043F004032364002384F83C30032070BDEC
:1018E000036C43F020030364002380F83C300120A4
:1018F00070476FF012021A60236C43F40073236484
:1019000023689A6812F0405F17D1227EBAB9DA6A6A
:1019100012F4700F03D09B6813F4806F11D1236C05
:1019200023F480732364236C13F4805F0BD1236C46
:1019300043F001032364002070BD002070BD00202F
:1019400070BD002070BD002070BDF8B504460D4686
:101950001646FFF757FD074623681A6835EA020264
:1019600011D0B6F1FF3FF7D026B1FFF74BFDC01BFA
:101970008642F1D2236C43F004032364002384F8ED
:101980003C300320F8BD012D0CD0226C42F4806263
:101990002264626C42F0020262646FF020021A60FC
:1019A0000020F8BD226C42F4803222646FF0010204
:1019B0001A600020F8BD82B00023019390F83C30FB
:1019C000012B00F08580012380F83C3003689A6881
:1019D00012F0010F13D19A6842F001029A60424B53
:1019E0001B68424AA2FB03239B0C03EB43030193B6
:1019F00002E0019B013B0193019B002BF9D102689E
:101A0000936813F0010F66D0036C23F4E06323F0B6
:101A1000010343F480730364536813F4806F05D0AB
:101A2000036C23F4405343F480530364036C13F4B6
:101A3000805F22D0436C23F006034364002380F8C8
:101A40003C306FF0220313600268536843F08063F8
:101A500043F020035360264B5B6813F01F0F27D120
:101A60000368244A934219D002F58072934207D04A
:101A7000214A93420BD000202BE000234364DDE792
:101A800002F50072526812F01F0F07D0F0E702F55E
:101A90008072526802F01F020F2A1ED89A6812F054
:101AA000405F1CD19A6842F080429A60002010E0AA
:101AB0000368104A934201D000200AE09A6812F0AD
:101AC000405F0ED19A6842F080429A60002000E0A8
:101AD000022002B070470020FBE70020F9E7002059
:101AE000F7E70020F5E700BF0800002083DE1B4376
:101AF00000230140002001400022014090F83C30CA
:101B0000012B1FD0012380F83C300268936823F03A
:101B10000103936003689A6812F0010F0DD15A68AF
:101B200022F0806222F020025A60036C23F4885372
:101B300023F0010343F001030364002380F83C30E9
:101B4000184670470220704730B583B000230193D8
:101B500090F83C30012B00F09B80012380F83C3052
:101B600003689C6814F0010F13D19C6844F00104D1
:101B70009C604D4B1C684D4BA3FB0434A40C04EB40
:101B80004404019402E0019C013C0194019C002C5E
:101B9000F9D103689C6814F0010F7CD0046C24F424
:101BA000E06424F0010444F4807404645B6813F47A
:101BB000806F05D0036C23F4405343F480530364D7
:101BC000036C13F4805F38D0436C23F00603436446
:101BD00013460446002280F83C20826B3448D063D0
:101BE000A26B34481064A26B3348D06422686FF053
:101BF000220010602568686840F080606860256891
:101C0000A86840F48070A86020680A4600F14C0182
:101C1000A06B02F04AF8294B5B6813F01F0F27D125
:101C20002368274A934219D002F58072934207D065
:101C3000244A93420BD000202BE000234364C7E7E3
:101C400002F50072526812F01F0F07D0F0E702F59C
:101C50008072526802F01F020F2A1ED89A6812F092
:101C6000405F1CD19A6842F080429A60002010E0E8
:101C70002368134A934201D000200AE09A6812F0C8
:101C8000405F0ED19A6842F080429A60002000E0E6
:101C9000022003B030BD0020FBE70020F9E7002060
:101CA000F7E70020F5E700BF0800002083DE1B43B4
:101CB000A31E0008311D00088D1E000800230140EE
:101CC000002001400022014090F83C30012B28D038
:101CD00010B50446012380F83C300268936823F075
:101CE0000103936003689A6812F0010F04D000208A
:101CF000002384F83C3010BD9A6822F480729A6008
:101D0000806B02F007F82268536823F08063536009
:101D1000236C23F4885323F0010343F0010323646D
:101D2000E6E7022070470368D86C70477047704739
:101D300008B5806BFFF7FBFF08BD7047704738B5EB
:101D4000044602681168536811F0020F2FD003F0A7
:101D5000200363B3036C13F0100F03D1036C43F43F
:101D600000730364936813F0405F19D1237EBBB9FD
:101D7000D36A13F4700F03D0936813F4806F0FD1FC
:101D8000536823F020035360236C23F4807323648F
:101D9000236C13F4805F03D1236C43F001032364AD
:101DA0002046FFF7C3FF23686FF012021A60236812
:101DB00019685A6802F0800211F0040F36D0002A28
:101DC00034D0226C12F0100F03D1226C42F4005276
:101DD00022649A6812F4401F21D19A6B12F4401FBA
:101DE00003D09A6812F4806F19D15A6812F4806F88
:101DF00015D19A6812F0405F11D1227E7AB95A68E3
:101E000022F080025A60236C23F480532364236CF5
:101E100013F4807F03D1236C43F001032364204635
:101E200000F05AFC23686FF00C021A6022681168F7
:101E3000536803F0400311F0010F04D01BB1136885
:101E400013F0010F09D122681168536803F0806311
:101E500011F0200F00D063B938BD236C43F48033F8
:101E600023642046FFF769FF23686FF001021A60C0
:101E7000E9E7636C43F0020363646FF020051560CB
:101E80002046FFF75BFF23681D60E5E708B5806B20
:101E900040230364436C43F004034364FFF74EFFA5
:101EA00008BD08B5836B1A6C12F0500F26D11A6C5E
:101EB00042F400721A641A68916811F0405F19D1F7
:101EC000197EB9B9D16A11F4700F03D0916811F479
:101ED000806F0FD1516821F0200151601A6C22F4FB
:101EE00080721A641A6C12F4805F03D11A6C42F08B
:101EF00001021A641846FFF719FF08BD1A6C12F0A8
:101F0000100F03D19B6BDB6C984708BD1846FFF799
:101F100015FF08BD30B482B00023019390F83C3027
:101F2000012B00F0B780012380F83C300B68092BAF
:101F30003ED90568EA689BB203EB43031E3B0724C6
:101F400004FA03F322EA0303EB600568EA688C688D
:101F50000B8803EB43031E3B04FA03F31343EB60CC
:101F60004B68062B3AD805686A6B03EB8303053B85
:101F70001F2404FA03F322EA03036B6305686A6B08
:101F80004B6803EB8303053B0C8804FA03F313430C
:101F90006B630268404B9A4250D002683E4B9A42B3
:101FA00055D0002380F83C30184602B030BC704752
:101FB00005682A699BB203EB4303072404FA03F381
:101FC00022EA03032B6105682A698C680B8803EBFE
:101FD000430304FA03F313432B61C1E70C2B16D818
:101FE00005682A6B03EB8303233B1F2404FA03F3E6
:101FF00022EA03032B6305682A6B4B6803EB830318
:10200000233B0C8804FA03F313432B63C1E70568F1
:10201000EA6A03EB8303413B1F2404FA03F322EA39
:102020000303EB620568EA6A4B6803EB8303413BF9
:102030000C8804FA03F31343EB62AAE70B68122B34
:10204000ABD1164A536843F480035360A5E70B688D
:10205000103B012BA5D8114A536843F40003536089
:102060000B68102B9DD10E4B1B6802F1467202F5D6
:102070002E3202F28332A2FB03239B0C03EB830379
:102080005A00019202E0019B013B0193019B002B4E
:10209000F9D186E7022088E70020014000230140B3
:1020A0000800002090F83C30012B34D010B40123FC
:1020B00080F83C300B7C012B27D00268536823F05A
:1020C000400353600268536823F4400323F4007311
:1020D0005360026853680C682343536003684A687E
:1020E0005A6203688A689A620268536823F01F0381
:1020F0005360026854688B8923435360002380F83F
:102100003C3018465DF8044B70470268536843F052
:1021100040035360D6E702207047006C7047406C64
:10212000704700BF08B5806B40230364436C43F0E5
:1021300004034364FFF702FE08BD08B5806BFFF798
:10214000F6FD08BD08B5836B1A6C12F0500F26D14E
:102150001A6C42F400721A641A68916811F0405FB8
:1021600019D1197EB9B9D16A11F4700F03D09168F1
:1021700011F4806F0FD1516821F0200151601A6C69
:1021800022F480721A641A6C12F4805F03D11A6C04
:1021900042F001021A641846FFF7C8FD08BD9B6BA8
:1021A000DB6C984708BD82B00023019390F83C3067
:1021B000012B5CD0012380F83C3003689A6812F050
:1021C000010F13D19A6842F001029A602E4B1B68EE
:1021D0002E4AA2FB03239B0C03EB4303019302E073
:1021E000019B013B0193019B002BF9D1026893688D
:1021F00013F0010F3ED0036C23F4405323F001038E
:1022000043F480530364036C13F4807F01D10023F3
:102210004364002380F83C306FF0040313601C4BD0
:102220005B6813F01F0F0ED102689168536803F4C6
:10223000806311F4401F1FD103BB936843F48003F4
:102240009360002014E003689A6802F44012596811
:1022500001F480610F48834201D0002008E07AB980
:1022600081B99A6842F480029A60002000E002205E
:1022700002B070470020FBE70020F9E70020F7E7F5
:102280000020F5E70020F3E70800002083DE1B4371
:10229000002301400020014082B00023019390F808
:1022A0003C30012B61D0012380F83C3003689A68F0
:1022B00012F0010F13D19A6842F001029A60314B7B
:1022C0001B68314AA2FB03239B0C03EB43030193DE
:1022D00002E0019B013B0193019B002BF9D10268B5
:1022E000936813F0010F43D0036C23F4405323F0A1
:1022F000010343F480530364036C13F4807F01D122
:1023000000234364002380F83C306FF00403136023
:102310000268536843F0800353601C4B5B6813F002
:102320001F0F0ED102689168536803F4806311F4A3
:10233000401F1FD103BB936843F4800393600020C8
:1023400014E003689A6802F44012596801F480614D
:102350000F48834201D0002008E07AB981B99A6819
:1023600042F480029A60002000E0022002B0704730
:102370000020FBE70020F9E70020F7E70020F5E761
:102380000020F3E70800002083DE1B430023014008
:1023900000200140034690F83C20012A29D0012268
:1023A00080F83C20026C12F4807F17D102685168DB
:1023B00011F4806F12D1916821F0010191600268DF
:1023C000926812F0010F12D1026C22F4885222F0AE
:1023D000010242F001020264002004E01A6C42F0A3
:1023E00020021A640120002283F83C20704700205C
:1023F000F9E70220704770B504460D46FFF702F872
:10240000064623681A6812F0040F0FD1B5F1FF3F9A
:10241000F7D025B1FEF7F6FF801B8542F1D20423E9
:102420002364002384F83C30032070BD6FF00C025D
:102430001A60236C43F40053236423689A6812F4EF
:10244000401F1FD19A6B12F4401F03D09A6812F4F8
:10245000806F19D15A6812F4806F17D19B6813F0FE
:10246000405F15D1237EABB9236C23F480532364E2
:10247000236C13F4807F0FD1236C43F0010323649A
:10248000002070BD002070BD002070BD002070BD18
:10249000002070BD002070BD002070BD034690F884
:1024A0003C20012A2DD0012280F83C20026C12F43D
:1024B000807F1BD10268516811F4806F16D191683A
:1024C00021F0010191600268916811F0010F16D1AD
:1024D000516821F080015160026C22F4885222F090
:1024E000010242F001020264002004E01A6C42F092
:1024F00020021A640120002283F83C20704700204B
:10250000F9E70220704782B00023019303686FF05F
:1025100004021A600139032906D8DFE801F0100C23
:10252000080203689B6C0193019802B0704703682E
:102530005B6C0193F8E703681B6C0193F4E7036895
:10254000DB6B0193F0E710B582B00023019390F8A4
:102550003C30012B72D0012380F83C3003689C682A
:1025600014F0010F13D19C6844F001049C60374BB8
:102570001C68374BA3FB0434A40C04EB4404019403
:1025800002E0019C013C0194019C002CF9D10368FC
:102590009C6814F0010F54D0046C24F4E06424F01F
:1025A000010444F4807404645B6813F4806F05D004
:1025B000036C23F4405343F480530364036C13F41B
:1025C000805F32D0436C23F006034364002380F81D
:1025D0003C30836B1F4CDC63836B1F4C1C64836B30
:1025E0001E4CDC6403686FF002041C6004686368BE
:1025F00043F08063636090F83030CBB1184C63686F
:1026000043F40053636013460A4604461549806B41
:1026100001F04BFB23689A6812F0405F13D19A686F
:1026200042F080429A60002009E000234364CDE735
:102630000B4C636823F400536360E4E7022002B0AC
:1026400010BD0020FBE70020F9E700BF08000020D4
:1026500083DE1B43452100083B210008252100089B
:10266000002301400823014090F83C30012B29D081
:1026700010B50446012380F83C300268936823F0CB
:102680000103936003689B6813F0010F04D00020DE
:10269000002384F83C3010BD0B4A536823F40053E8
:1026A0005360806B01F036FB2268536823F080632F
:1026B0005360236C23F4885323F0010343F0010398
:1026C0002364E5E70220704700230140014B98682E
:1026D000704700BF00230140704790F83C30012B49
:1026E00000F0F98030B4012380F83C300B68092BEE
:1026F0007DD90568EA689BB203EB43031E3B0724C0
:1027000004FA03F322EA0303EB600568EA688C68C5
:102710000B8803EB43031E3B04FA03F31343EB6004
:102720000268936B23F4401393630468A36B0A69F4
:10273000013A43EA0253A3630568AA6B4B680C692C
:102740001B1BDBB20333DBB203EB83031F2404FA4E
:1027500003F322EA0303AB630568AA6B4B680C69B9
:102760001B1BDBB20333DBB203EB83030C8804FADD
:1027700003F31343AB638A69584B9A424DD0026806
:10278000936823F470239360026893688C692343F1
:1027900093600268936823F440139360026893681F
:1027A000CC69234393604B7D002B41D00268536872
:1027B00043F4806353600B7D002B3FD00268536865
:1027C00043F4805353604B68022B57D0032B62D0E5
:1027D000012B39D00268136A23F47F6323F00F03BF
:1027E00013620268136ACC682343136238E00568F9
:1027F0002A699BB203EB4303072404FA03F322EA9A
:1028000003032B6105682A698C680B8803EB43037B
:1028100004FA03F313432B6182E70268936823F4FD
:10282000702393600268936823F440139360BAE7BF
:102830000268536823F480635360BCE702685368FE
:1028400023F480535360BEE70268536923F47F6327
:1028500023F00F03536102685369CC68234353612B
:1028600002681F4B9A4223D002681D4B9A4228D01F
:10287000002380F83C30184630BC704702689369EA
:1028800023F47F6323F00F03936102689369CC689C
:1028900023439361E4E70268D36923F47F6323F061
:1028A0000F03D3610268D369CC682343D361D7E7B0
:1028B0000B68122BD8D10B4A536843F48003536042
:1028C000D2E70B68103B012BD2D8064A536843F479
:1028D00000035360CCE70220704700BF01000F00E7
:1028E000002001400023014090F83C30012B23D010
:1028F00010B4012380F83C30104B5A6822F01F02BC
:102900005A605A680C6822435A605A6822F440425E
:102910005A605A684C6822435A605A6822F47062BE
:102920005A605A6889680A435A60002380F83C302C
:1029300018465DF8044B70470220704700230140A1
:102940007047002800F0A18038B5044690F8203088
:10295000D3B12268136823F002031360FEF752FD1F
:10296000054623685A6812F0020F10D0FEF74AFDA0
:10297000401B0A28F5D9636A43F4003363620523D8
:1029800084F82030012038BDFDF7A8FDE1E71A6882
:1029900042F001021A60FEF735FD054623685A68C9
:1029A00012F0010F0DD1FEF72DFD401B0A28F5D9BD
:1029B000636A43F400336362052384F82030012006
:1029C00038BD227E012A3DD01A6822F080021A60AA
:1029D000637E012B3BD02268136823F04003136011
:1029E000A37E012B39D02268136823F020031360E3
:1029F000E37E012B37D02268136843F01003136085
:102A0000237F012B35D02268136823F0080313605D
:102A1000637F012B33D02268136823F00403136013
:102A20002168A368E2681343226913436269134370
:102A30006268013A1343CB6100206062012384F88D
:102A4000203038BD1A6842F080021A60C0E7226860
:102A5000136843F040031360C2E72268136843F031
:102A600020031360C4E72268136823F01003136087
:102A7000C6E72268136843F008031360C8E72268BA
:102A8000136843F004031360CAE7012070477047DE
:102A900090F82030013BDBB2012B05D9436A43F4A7
:102AA000802343620120704770B4434BD3F8002267
:102AB00042F00102C3F80022D3F8002222F47C5233
:102AC000C3F80022D3F80022486A42EA0022C3F881
:102AD00000224A6902F01F02012000FA02F2D3F834
:102AE0001C42D0430440C3F81C42CB69B3B9324BFB
:102AF000D3F80C420440C3F80C424C69CE688D8870
:102B000045EA0645483443F834504D698E680C88D0
:102B100044EA0644483503EBC5035C60CB69012BEE
:102B20001DD08B69002B32D1234CD4F804320340E2
:102B3000C4F804320B698BBB1F4BD3F814422040FE
:102B4000C3F814020B6A012B2FD01B4AD2F80032B3
:102B500023F00103C2F80032002070BC7047164B0E
:102B6000D3F80C421443C3F80C424C690E688D88AC
:102B700045EA0645483443F834504D698E688C89DF
:102B800044EA0644483503EBC5035C60C9E70A4CD8
:102B9000D4F804321343C4F80432CBE70648D0F823
:102BA00014321343C0F81432CCE7034BD3F81C1291
:102BB0000A43C3F81C22C8E70064004038B590F807
:102BC0002030DBB2012B05D0436A43F4002343627B
:102BD000012038BD0446022380F8203002681368C3
:102BE00023F001031360FEF70DFC054623685B68C4
:102BF00013F0010F0DD0FEF705FC401B0A28F5D994
:102C0000636A43F400336362052384F820300120B3
:102C100038BD0020606238BD38B590F82030DBB296
:102C2000022B05D0436A43F480134362012038BD70
:102C300004460268136843F001031360FEF7E2FBE9
:102C4000054623685A6812F0010F0DD1FEF7DAFB32
:102C5000401B0A28F5D9636A43F4003363620523F5
:102C600084F82030012038BD1A6822F002021A6070
:102C7000012384F82030002038BD80B110B504460F
:102C8000FFF7CAFF2046FDF75FFC2268136843F494
:102C9000004313600020606284F8200010BD012012
:102CA000704790F82030013BDBB2012B05D9436A15
:102CB00043F480234362012070470268136843F0A5
:102CC000020313600020704782B00023019390F844
:102CD0002030013BDBB2012B06D9436A43F4802349
:102CE0004362012002B070470268136823F00203B8
:102CF0001360019B01330193019A084B9A4206D855
:102D000003685B6813F0020FF3D10020EAE7436A1F
:102D100043F4003343620120E4E700BF40420F0068
:102D200090F82030013BDBB2012B01D90020704725
:102D300003685B6813F0020F01D001207047002088
:102D4000704770B490F820400568AD68013CE4B26B
:102D5000012C06D9436A43F480234362012070BCEE
:102D6000704715F0E05F5BD0C5F30165022D3ED8DA
:102D70000124AC401C608B68002B3ED104680E68B7
:102D8000CB6843EA465605F118031B01E650036879
:102D90000C6905F1180603EB06135C600B7D012B33
:102DA00036D00468D17993791B0443EA01635179E1
:102DB00043EA012311790B432E013444C4F88C31CA
:102DC0000168D47893781B0443EA0463547843EA97
:102DD0000423127813433144C1F88831026818354E
:102DE0002D01535943F0010353510020B7E7436AC3
:102DF00043F4000343620120B1E704684E6843EAEC
:102E0000C603CE68334305F118063601A351BEE769
:102E1000036803EB0613596841F480715960C0E7F9
:102E2000436A43F400134362012098E790F820308E
:102E3000013BDBB2012B05D9436A43F48023436293
:102E40000120704711F0010F04D00268936843F02D
:102E50008003936011F0020F04D00268936843F47A
:102E60000043936011F0040F06D00268936843F4A6
:102E700000039360002070470020704790F82030D6
:102E8000013BDBB2012B01D90020704703689A682F
:102E900012F0806F0BD100209A6812F0006F00D002
:102EA00001309B6813F0805FEFD001307047012044
:102EB000F2E790F82030013BDBB2012B01D9002072
:102EC000704703689B68890631EA030301D001203B
:102ED00070470020704790F82030013BDBB2012B97
:102EE00001D90020704791FAA1F1B1FA81F103688C
:102EF000183103EB01114868000C704730B490F8AA
:102F00002040013CE4B2012C06D9436A43F48023FB
:102F10004362012030BC704700296FD10468E46827
:102F200014F0030F64D0056801F11B0424012C592F
:102F300004F004049460002C6BD1056801F11B04BB
:102F400024012C59640D1460056801F11B0424014F
:102F50002D5905F00205D560056825446D6805F01A
:102F60000F051561056825446D68C5F30725956152
:102F700005682C446468240C546104680A011444F4
:102F8000D4F8B8411C7004681444D4F8B841C4F3B0
:102F900007245C7004681444D4F8B841C4F30744AF
:102FA0009C7004681444D4F8B841240EDC700468A2
:102FB0001444D4F8BC411C7104681444D4F8BC41D6
:102FC000C4F307245C7104681444D4F8BC41C4F30E
:102FD00007449C7104682244D2F8BC21120EDA71B5
:102FE000F9B90268D36843F02003D360002091E769
:102FF000436A43F40013436201208BE704682469A9
:1030000014F0030F8FD1436A43F40013436201208D
:1030100080E7056801F11B0424012C59E408546081
:1030200092E70268136943F020031361002071E7FF
:1030300090F82030013BDBB2012B01D90020704712
:1030400021B10368186900F0030070470368D8686D
:1030500000F00300704790F82030013BDBB2012BF9
:1030600005D9436A43F48023436201207047026814
:103070005369194351610020704790F82030013B9B
:10308000DBB2012B05D9436A43F48023436201205C
:1030900070470268536923EA0101516100207047BB
:1030A0007047704770477047704770477047704768
:1030B000704770477047704770472DE9F84F0546D5
:1030C00003685C695F689E68D3F80C90D3F8108041
:1030D000D3F818A014F0010F5AD016F0010F17D032
:1030E00001229A6016F0020F08D116F0040F30D1B9
:1030F00016F0080F07D04FF4805B0BE0FFF7D0FF0E
:103100004FF0000B06E0FFF7CEFF4FF0000B01E0A1
:103110004FF0000B16F4807F0BD02B684FF48072B9
:103120009A6016F4007F17D116F4806F18D04BF414
:10313000005B16F4803F2DD02B684FF480329A60EC
:1031400016F4003F16D116F4802F17D04BF4004B25
:1031500020E04FF4006BDDE72846FFF7A2FFE8E729
:1031600016F4006F02D04BF4804BE2E72846FFF7DD
:103170009BFFDEE72846FFF795FF0BE016F4002FD4
:1031800002D04BF4803B05E02846FFF78EFF01E0BC
:103190004FF0000B14F0080F07D019F0100F04D0F7
:1031A0004BF4007B2B681022DA6014F0040F02D07D
:1031B00019F0080F60D114F0020F04D02B68DB68FF
:1031C00013F0030F5FD114F0400F07D018F0100F69
:1031D00004D04BF4806B2B6810221A6114F0200F7E
:1031E00002D018F0080F52D114F0100F04D02B6841
:1031F0001B6913F0030F51D114F4003F02D017F0F4
:10320000100F4FD114F4803F02D017F0080F50D1A7
:1032100014F4004F67D017F0040F61D014F4807FCE
:1032200004D01AF0010F01D04BF0010B14F4007F11
:1032300004D01AF0020F01D04BF0020B14F4806F8F
:1032400004D01AF0040F01D04BF0040B14F4006FFB
:1032500046D01AF0700A43D0BAF1300F48D02FD9B7
:10326000BAF1500F47D0BAF1600F47D0BAF1400F12
:1032700031D14BF0400B2EE02B680822DA60284653
:10328000FFF715FF97E72846FFF710FF9BE72B682E
:1032900008221A612846FFF70CFFA5E72846FFF72A
:1032A00007FFA9E72B6810225A602846FFF702FFA4
:1032B000A8E72B6808225A602846FFF7FCFEA7E71C
:1032C000BAF1100F05D0BAF1200F04D14BF0100B5A
:1032D00001E04BF0080B2A68936923F070039361B7
:1032E0002B6804225A60BBF1000F0AD1BDE8F88FA9
:1032F0004BF0200BEFE74BF0800BECE74BF4807BBF
:10330000E9E76B6A4BEA03036B622846FFF7D4FEDA
:10331000ECE790F82030DBB25A1ED2B2012A01D974
:10332000184670470268516811F0020F01D004235B
:10333000F6E7126812F0020FF2D00323F0E7406ABA
:10334000704790F82030013BDBB2012B05D9436A6E
:1033500043F48023436201207047002343621846F0
:10336000704700BF074AD36823F4E0631B041B0CBB
:10337000000200F4E060184340F0BF6040F4003009
:10338000D060704700ED00E030B4164BDB68C3F34B
:103390000223C3F10704042C28BF04241D1D062D9D
:1033A00017D9033B012505FA04F4013C214099405B
:1033B00005FA03F3013B1340194300280BDB090115
:1033C000C9B200F1604000F5614080F8001330BCE4
:1033D00070470023E6E700F00F000901C9B2024B75
:1033E0001954F4E700ED00E014ED00E0002808DBDC
:1033F000420900F01F00012303FA00F0014B43F8DB
:103400002200704700E100E000280DDB430900F0D6
:103410001F00012202FA00F02033044A42F8230080
:10342000BFF34F8FBFF36F8F704700BF00E100E025
:10343000BFF34F8F0549CA6802F4E062044B13439F
:10344000CB60BFF34F8F00BFFDE700BF00ED00E092
:103450000400FA050138B0F1807F0AD2064B5860AB
:10346000F021064A82F823100020986007221A6093
:1034700070470120704700BF10E000E000ED00E061
:10348000BFF35F8F044A536A23F4803353620022F0
:10349000024B5A60704700BF00ED00E090ED00E085
:1034A00040F00100054B5860054A536A43F48033ED
:1034B0005362BFF34F8FBFF36F8F704790ED00E003
:1034C00000ED00E04278134B9A60037823B9114B6A
:1034D0000022DA601A61704743680E4AD360017BAC
:1034E000C37A1B0643EA0173817A43EAC143417BF5
:1034F00043EA8143817B43EA4143C17B43EA014381
:10350000417A43EA0123017A43EA410301780B43FC
:103510001361704790ED00E0024BD868C0F30220C1
:10352000704700BF00ED00E070B400281FDB00F121
:10353000604000F5614090F80003050901F00701C3
:10354000C1F10704042C28BF0424081D062814D93F
:10355000033925FA01F6012000FA04F4013C344055
:103560001460884001382840186070BC704700F033
:103570000F00034C205C0509E0E70021E9E700BFEC
:1035800014ED00E0002809DB430900F01F000122D0
:1035900002FA00F04033024A42F82300704700BFAD
:1035A00000E100E0031E0ADB5A094032054951F8E8
:1035B000220003F01F03D84000F0010070470020F4
:1035C000704700BF00E100E0002809DB430900F07C
:1035D0001F00012202FA00F06033024A42F8230081
:1035E000704700BF00E100E0031E0ADB5A09803289
:1035F000054951F8220003F01F03D84000F00100F4
:1036000070470020704700BF00E100E0042805D0AB
:10361000054A136823F0040313607047024A1368D5
:1036200043F004031360704710E000E0704708B5F2
:10363000FFF7FCFF08BD00BF704770B110B504462E
:10364000037933B102232371002020610123237108
:1036500010BD4371FCF7B8FFF4E7012070477047D5
:1036600050B110B5044602230371FCF7E7FF0020B8
:1036700020612071607110BD012070474379012BDA
:1036800031D010B401234371022202710468226810
:103690008B4013432360B1B902681168136803F0CB
:1036A000380311F0040F01D0382B07D00123037128
:1036B0000023437118465DF8044B7047536843F08C
:1036C00001035360F2E702681168136803F46013A2
:1036D00011F4802FEAD0B3F5601FE7D1536843F0AF
:1036E00002035360E2E70220704710B404682368C5
:1036F000012202FA01F123EA010323600271002092
:103700005DF8044B7047F8B5069E4479012C64D0EF
:103710000124447102240471002935D18468304D9C
:10372000E56384682F4D256484682F4DE564056842
:103730002C6844F480542C60042E1FD0082E20D016
:10374000CEB10E4617460D46044600293AD101680F
:103750000A6842F400520A6032463946806800F036
:10376000A4FA22681368012101FA05F51D431560CA
:1037700000206071F8BD06680836E3E706680C367D
:10378000E0E706681036DDE7C468184DE563C468F5
:10379000174D2564C468174DE56405682C6844F02E
:1037A00080542C60042E07D0082E08D00EB10026BD
:1037B000C8E706681436C5E706681836C2E7066823
:1037C0001C36BFE701680A6842F000520A603246C0
:1037D0003946C06800F069FAC3E70220F8BD00BFAF
:1037E000493800085B38000867380008013A0008CB
:1037F000113A00081B3A000810B504460068036837
:103800004FF480528A4023EA020303602068036871
:1038100001228A4023EA0203036031B9A06800F064
:1038200079FA30B90123237110BDE06800F072FA13
:10383000F7E70423237110BD11B10368186B7047BB
:103840000368D86A7047704710B5846B2046FFF74D
:10385000FAFF0123237110BD704708B5806BFFF795
:10386000FBFF08BD704710B5846B236943F0040368
:1038700023612046FFF7F6FF0123237110BD704737
:1038800010B5044603685A6B12F4005F05D1236833
:103890005A6B12F0005F11D110BD0422027102694F
:1038A00042F0010202614FF400525A630268136849
:1038B00023F480531360FFF7E2FFE8E7042222714C
:1038C000226942F0020222614FF000525A632268DC
:1038D000136823F080531360204600F090F8DBE774
:1038E0004379012B1FD070B4012545710223037168
:1038F0000668336840F6FE74944023EA04030C68BB
:103900004968214391400B43336004682368C02118
:1039100001FA02F223EA02022260057100234371D8
:10392000184670BC70470220704710B483B0002462
:1039300001940068019051B101990A441432019236
:10394000019A1360002003B05DF8044B70470199A1
:103950000A4408320192F3E7007970470069704722
:103960000368DA6A186B42EA004070474379012B1A
:1039700017D070B4012545710223037106683368BE
:103980004FF47C648C4023EA040342F0800202FA84
:1039900001F119433160057100234371184670BC71
:1039A0007047022070474379012B17D070B401256E
:1039B000457102230371066833684FF47C648C40C0
:1039C00023EA040342F0400202FA01F11943316094
:1039D000057100234371184670BC70470220704780
:1039E000082906D042EA0342036819440A6200200B
:1039F000704742EA0322F7E7704770477047704705
:103A000010B5846B2046FFF7F7FF0123237110BD2B
:103A100008B5806BFFF7F1FF08BD10B5846B236913
:103A200043F0040323612046FFF7E8FF01232371DD
:103A300010BD000030B405682C6824F480242C608C
:103A4000046863608368402B05D00368996003684D
:103A5000DA6030BC704703689A600368D960F8E7A1
:103A60000268D3B2103B0B49A1FB03131B090A499F
:103A7000C95CC165032B06D822F47F7222F00302D1
:103A80008265806D704722F47F7222F00302043257
:103A90008265F6E7ABAAAAAAECC90108836A826923
:103AA00092B9012B0AD01BB1022B01D00020704724
:103AB000C36A13F0807F2CD100207047C36AB3F132
:103AC000C07F28D000207047B2F5005F05D0022BE0
:103AD00029D9032B15D000207047032B03D8DFE82A
:103AE00003F01C041C0A00207047C36A13F0807F97
:103AF00015D100207047C36AB3F1C07F11D00020F8
:103B00007047C36A13F0807F01D001207047002006
:103B10007047012070470120704701207047012045
:103B20007047012070470120704770B50446FDF7CB
:103B300069FC002C5DD00546002384F83430022354
:103B400084F835302268136823F00103136023687A
:103B50001A6812F0010F0AD0FDF754FC401B05282B
:103B6000F5D920236365032084F8350070BD1A68F9
:103B7000214911406268A0680243E068024320695D
:103B8000024360690243A0690243E0690243206A7C
:103B900002430A43616A042916D01A6026687569CF
:103BA00025F00705636A1D43042B12D0756120467A
:103BB000FFF756FFE26D3F2393408360002060656E
:103BC000012384F8353070BDE16A206B01430A435C
:103BD000E3E7A36A1D43E36A002BE7D02046FFF723
:103BE0005DFF0028E2D040236365012084F83500A2
:103BF00070BD012070BD00BF3F8010F000282ED0A6
:103C000038B5044690F83530DBB2022B01D10220E2
:103C100038BD0268136823F00103136003680025B0
:103C20001D6003685D6003689D600368DD60036874
:103C30001D61036821225A61FFF712FFE5632564C5
:103C40006564A564E5642565E26D3F239340836068
:103C5000656584F8355084F83450284638BD012015
:103C6000704738B590F83440012C1CD0012480F8FE
:103C7000344090F83540E4B2012C04D0002380F8A1
:103C80003430022038BD0546022085F83500002476
:103C90006C652846FFF7CEFE2A68136843F00103DF
:103CA0001360204638BD022038BD38B5856D90F8C8
:103CB0003440012C2CD0012480F8344090F8354059
:103CC000E4B2012C04D0002380F83430022038BD47
:103CD0000446022084F83500002060652046FFF786
:103CE000A9FEE26D3F239340AB602268136843F066
:103CF00016031360236C23B12268136843F0080392
:103D000013602268136843F001031360002038BD7C
:103D1000022038BD70B50446866DFDF773FB94F83C
:103D20003530DBB2022B06D080236365002384F894
:103D30003430012070BD05462268136823F0160355
:103D400013602268536923F080035361236CE3B14D
:103D50002268136823F0080313602268136823F0B5
:103D60000103136023681B6813F0010F11D0FDF7E6
:103D700049FB401B0528F5D920236365002384F8FF
:103D80003430032084F8350070BDA36C002BDFD1E4
:103D9000E3E7E26D3F239340B360002084F83400F2
:103DA000012384F8353070BD90F83530DBB2022B3A
:103DB00003D08023436501207047052380F8353008
:103DC0000268136823F001031360002070472DE997
:103DD000F843044689461546FDF714FB94F8353040
:103DE000DBB2022B07D080236365002384F83430D4
:103DF0000120BDE8F883804623681B6813F4807FA8
:103E000038D1B9F1000F3BD1E36D20279F40A66D5B
:103E100033681F4243D1636D13F0010F3FD1B5F1F9
:103E2000FF3F07D0002D2FD0FDF7ECFAA0EB0800E4
:103E3000854229D33368E16D08228A40134204D0B9
:103E4000616D41F001016165B260E16D01228A405E
:103E5000134204D0616D41F002016165B260E16D11
:103E600004228A401342D4D0616D41F0040161659F
:103E7000B260CEE74FF4807363650120BDE8F8833C
:103E8000E36D10279F40C2E720236365002384F879
:103E90003430012384F835300320BDE8F883636DA6
:103EA0001BB1636D13F0010F09D1B9F1000F15D0EB
:103EB000E26D10239340B3600020BDE8F8832046F4
:103EC000FFF728FFE26D30239340B360002384F8AE
:103ED0003430012084F83500BDE8F883E26D3023EA
:103EE0009340B360002084F83400012384F8353017
:103EF000BDE8F883F0B583B0044600230193724B0C
:103F00001D68724BA3FB0535AD0A876D3E68C26D17
:103F1000082393401E4210D003681A6812F0040F61
:103F20000BD01A6822F004021A60C26D0823934075
:103F3000BB60436D43F001034365E26D0123934091
:103F40001E4209D02268526912F0800F04D0BB6073
:103F5000636D43F002036365E26D042393401E42E8
:103F600009D02268126812F0020F04D0BB60636DA2
:103F700043F004036365E26D102393401E4224D096
:103F80002268126812F0080F1FD0BB6023681A68FD
:103F900012F4802F0DD01B6813F4002F04D1236C72
:103FA0009BB12046984710E0A36C73B12046984718
:103FB0000BE01A6812F4807F03D11A6822F008021D
:103FC0001A60236C0BB120469847E26D2023934082
:103FD0001E4255D02268126812F0100F50D0BB60FC
:103FE00094F83530DBB2052B0ED023681A6812F432
:103FF000802F33D01B6813F4002F2AD1636C002B61
:104000003ED0204698473BE02268136823F0160311
:1040100013602268536923F080035361236CA3B1BA
:104020002268136823F008031360E26D3F23934076
:10403000BB60002384F83430012384F83530236DCD
:10404000002B3FD0204698473CE0A36C002BE7D1E3
:10405000EBE7E36BA3B12046984711E01A6812F42E
:10406000807F09D11A6822F010021A60002384F8B8
:104070003430012384F83530E36B0BB12046984788
:10408000636DFBB1636D13F0010F17D0052384F846
:1040900035302268136823F001031360019B01335C
:1040A00001939D4204D323681B6813F0010FF5D1DF
:1040B000002384F83430012384F83530E36C0BB1ED
:1040C0002046984703B0F0BD08000020B5814E1B84
:1040D000034690F83400012827D0012083F83400EB
:1040E00093F83500C0B2012804D00120002283F8E3
:1040F00034207047052916D8DFE801F00306090CC3
:104100000F12DA630020F1E71A640020EEE75A6428
:104110000020EBE79A640020E8E7DA640020E5E796
:104120001A650020E2E70020E0E70220704703461E
:1041300090F83420012A30D0012280F8342090F801
:104140003520D2B2012A04D00120002283F8342085
:10415000704706291FD8DFE801F004070A0D101385
:1041600016000020D863F0E700201864EDE7002077
:104170005864EAE700209864E7E70020D864E4E7A1
:1041800000201865E1E70020D8631864586498643B
:10419000D8641865D9E70120D7E70220704790F866
:1041A00035007047406D704710B4046863608368E1
:1041B000402B06D0036899600368DA605DF8044B11
:1041C000704703689A600368D960F7E738B5846878
:1041D000802C0DD090F83440012C24D0012480F89C
:1041E000344090F83540E4B2012C06D0022038BDAE
:1041F0004FF480734365012038BD0446022084F8E3
:1042000035002568286840F4802028602068036114
:10421000049B2046FFF7C8FF2268136843F00103A0
:104220001360002038BD022038BD38B58468802C6A
:1042300017D0C46BD4B1446CC4B1C46CB4B190F8A1
:104240003440012C00F05E87012480F8344090F85F
:104250003540E4B2012C0DD0002380F83430022028
:1042600038BD4FF480734365012038BD402343655A
:10427000012038BD0446022084F835000020606526
:104280002568286840F48020286020680361049B2A
:104290002046FFF789FF2368C54A934240F2988081
:1042A000A2F58962934231D002F58062934274D0C4
:1042B000A2F56872934272D002F58062934270D088
:1042C000A2F5896293426ED002F5806293426DD06E
:1042D000A2F5687293426CD002F5806293426BD073
:1042E000A2F5896293426AD002F58062934269D056
:1042F000A2F56872934268D002F58062934202D0C0
:104300004FF0006303E04FF4001300E02023A94ABC
:10431000D3602368A64A934240F2CD81A2F5896218
:10432000934200F0668102F58062934200F0A8811A
:10433000A2F56872934200F0A58102F58062934273
:1043400000F0A281A2F58962934200F09F8102F5FC
:104350008062934200F09D81A2F56872934200F062
:104360009B8102F58062934200F09981A2F58962F7
:10437000934200F0978102F58062934200F09581AC
:10438000A2F56872934200F0938102F58062934235
:1043900000F02C814FF080632CE12023B7E720232D
:1043A000B5E72023B3E74FF40063B0E74FF40063B1
:1043B000ADE74FF40063AAE74FF40063A7E74FF4BB
:1043C0000013A4E74FF40013A1E74FF400139EE796
:1043D000794A934253D9A83A93422ED002F580628B
:1043E00093422ED0A2F5687293422CD002F58062DF
:1043F00093422AD0A2F58962934228D002F58062C6
:10440000934227D0A2F56872934226D002F58062CB
:10441000934225D0A2F58962934224D002F58062AE
:10442000934223D0A2F56872934222D002F58062B3
:10443000934221D14FF4001300E020235D4A9360A2
:1044400067E72023FAE72023F8E72023F6E74FF475
:104450000063F3E74FF40063F0E74FF40063EDE728
:104460004FF40063EAE74FF40013E7E74FF400135B
:10447000E4E74FF40013E1E74FF00063DEE74F4A53
:10448000934253D9483A934231D002F58062934225
:1044900031D0A2F5687293422FD002F58062934228
:1044A0002DD0A2F5896293422BD002F5806293420F
:1044B0002AD0A2F56872934229D002F58062934215
:1044C00028D0A2F58962934227D002F580629342F8
:1044D00026D0A2F56872934225D002F580629342FD
:1044E00002D04FF0006303E04FF4001300E02023FC
:1044F000334AD3600DE72023FAE72023F8E720238F
:10450000F6E74FF40063F3E74FF40063F0E74FF48E
:104510000063EDE74FF40063EAE74FF40013E7E7C9
:104520004FF40013E4E74FF40013E1E7254A934208
:1045300031D002F58062934231D0A2F56872934285
:104540002FD002F5806293422DD0A2F5896293426A
:104550002BD002F58062934236D0A2F56872934266
:1045600035D002F58062934234D0A2F5896293423D
:1045700033D002F58062934232D0A2F56872934242
:1045800031D002F58062934202D04FF0006303E025
:104590004FF4001300E02023094A9360B9E620237A
:1045A000FAE72023F8E72023F6E74FF40063F3E768
:1045B0005864024000640240B86002405860024003
:1045C00000600240106002404FF40063E4E74FF4E3
:1045D0000063E1E74FF40063DEE74FF40013DBE72D
:1045E0004FF40013D8E74FF40013D5E74FF48013CE
:1045F00000E01023B24AD3602368B24A934240F2EB
:10460000CD81A2F58962934200F0668102F5806255
:10461000934200F0A881A2F56872934200F0A58150
:1046200002F58062934200F0A281A2F58962934272
:1046300000F09F8102F58062934200F09D81A2F517
:104640006872934200F09B8102F58062934200F011
:104650009981A2F58962934200F0978102F5806208
:10466000934200F09581A2F56872934200F0938125
:1046700002F58062934200F020814FF000732CE13C
:104680001023B7E71023B5E71023B3E74FF4806397
:10469000B0E74FF48063ADE74FF48063AAE74FF4CF
:1046A0008063A7E74FF48013A4E74FF48013A1E7DA
:1046B0004FF480139EE7844A934253D9A83A934219
:1046C0002ED002F5806293422ED0A2F568729342FA
:1046D0002CD002F5806293422AD0A2F589629342DF
:1046E00028D002F58062934227D0A2F568729342E7
:1046F00026D002F58062934225D0A2F589629342CA
:1047000024D002F58062934223D0A2F568729342CE
:1047100022D002F58062934221D14FF4801300E051
:104720001023674A936067E71023FAE71023F8E73E
:104730001023F6E74FF48063F3E74FF48063F0E76C
:104740004FF48063EDE74FF48063EAE74FF48013A2
:10475000E7E74FF48013E4E74FF48013E1E74FF00D
:104760008063DEE7594A934253D9483A934231D0A5
:1047700002F58062934231D0A2F5687293422FD045
:1047800002F5806293422DD0A2F5896293422BD02C
:1047900002F5806293422AD0A2F56872934229D032
:1047A00002F58062934228D0A2F58962934227D015
:1047B00002F58062934226D0A2F56872934225D01A
:1047C00002F58062934202D04FF0806303E04FF421
:1047D000801300E010233E4AD3600DE71023FAE770
:1047E0001023F8E71023F6E74FF48063F3E74FF464
:1047F0008063F0E74FF48063EDE74FF48063EAE70E
:104800004FF48013E7E74FF48013E4E74FF480138D
:10481000E1E7304A934231D002F58062934231D0D1
:10482000A2F5687293422FD002F5806293422DD098
:10483000A2F5896293422BD002F5806293422AD07E
:10484000A2F56872934229D002F58062934228D083
:10485000A2F58962934227D002F58062934226D066
:10486000A2F56872934225D002F58062934202D08D
:104870004FF0806303E04FF4801300E01023144AEC
:104880009360B9E61023FAE71023F8E71023F6E760
:104890004FF48063F3E74FF48063F0E74FF48063F5
:1048A000EDE74FF48063EAE74FF48013E7E74FF456
:1048B0008013E4E74FF48013E1E74FF400230CE0AA
:1048C0000064024058640240B860024058600240F0
:1048D00000600240106002400823B34AD36023689E
:1048E000B24A934240F2CE81A2F58962934200F02F
:1048F000678102F58062934200F0A981A2F5687297
:10490000934200F0A68102F58062934200F0A381F9
:10491000A2F58962934200F0A08102F58062934281
:1049200000F09E81A2F56872934200F09C8102F52E
:104930008062934200F09A81A2F58962934200F06E
:10494000988102F58062934200F09681A2F5687228
:10495000934200F0948102F58062934200F020813E
:104960004FF080732DE10823B7E70823B5E708234C
:10497000B3E74FF40073B0E74FF40073ADE74FF4C3
:104980000073AAE74FF40073A7E74FF40023A4E7EE
:104990004FF40023A1E74FF400239EE7844A93429B
:1049A00053D9A83A93422ED002F5806293422ED07A
:1049B000A2F5687293422CD002F5806293422AD00D
:1049C000A2F58962934228D002F58062934227D0F3
:1049D000A2F56872934226D002F58062934225D0F8
:1049E000A2F58962934224D002F58062934223D0DB
:1049F000A2F56872934222D002F58062934221D1DF
:104A00004FF4002300E00823674A936067E7082318
:104A1000FAE70823F8E70823F6E74FF40073F3E713
:104A20004FF40073F0E74FF40073EDE74FF40073B9
:104A3000EAE74FF40023E7E74FF40023E4E74FF4FD
:104A40000023E1E74FF00073DEE75A4A934253D95F
:104A5000483A934231D002F58062934231D0A2F5B8
:104A6000687293422FD002F5806293422DD0A2F556
:104A7000896293422BD002F5806293422AD0A2F53C
:104A80006872934229D002F58062934228D0A2F541
:104A90008962934227D002F58062934226D0A2F524
:104AA0006872934225D002F58062934202D04FF0A3
:104AB000007303E04FF4002300E008233E4AD36074
:104AC0000DE70823FAE70823F8E70823F6E74FF491
:104AD0000073F3E74FF40073F0E74FF40073EDE772
:104AE0004FF40073EAE74FF40023E7E74FF40023A5
:104AF000E4E74FF40023E1E7304A934231D002F576
:104B00008062934231D0A2F5687293422FD002F5B1
:104B1000806293422DD0A2F5896293422BD002F598
:104B2000806293422AD0A2F56872934229D002F59E
:104B30008062934228D0A2F58962934227D002F581
:104B40008062934226D0A2F56872934225D002F586
:104B50008062934202D04FF0007303E04FF40023D1
:104B600000E00823144A9360B9E60823FAE7082313
:104B7000F8E70823F6E74FF40073F3E74FF4007308
:104B8000F0E74FF40073EDE74FF40073EAE74FF4FA
:104B90000023E7E74FF40023E4E74FF40023E1E7C5
:104BA0004FF480230DE000BF0064024058640240CF
:104BB000B86002405860024000600240106002404D
:104BC0000423C14AD3602368C04A934240F29F81C4
:104BD000A2F58962934200F05A8102F58062934205
:104BE00000F07E81A2F56872934200F07B8102F5AD
:104BF0008062934200F07881A2F58962934200F0CE
:104C0000758102F58062934200F07281A2F56872AC
:104C1000934200F06F8102F58062934200F06C8154
:104C2000A2F58962934200F0698102F580629342A5
:104C300000F06781A2F56872934200F0658102F589
:104C40008062934200F020814FF4800320E104232E
:104C5000B7E70423B5E70423B3E74FF48073B0E765
:104C60004FF48073ADE74FF48073AAE74FF480737D
:104C7000A7E74FF48023A4E74FF48023A1E74FF484
:104C800080239EE7924A934253D9A83A93422ED06A
:104C900002F5806293422ED0A2F5687293422CD026
:104CA00002F5806293422AD0A2F58962934228D00D
:104CB00002F58062934227D0A2F56872934226D013
:104CC00002F58062934225D0A2F58962934224D0F6
:104CD00002F58062934223D0A2F56872934222D0FB
:104CE00002F58062934221D14FF4802300E0042337
:104CF000754A936067E70423FAE70423F8E704237F
:104D0000F6E74FF48073F3E74FF48073F0E74FF466
:104D10008073EDE74FF48073EAE74FF48023E7E711
:104D20004FF48023E4E74FF48023E1E74FF08073F2
:104D3000DEE7684A934253D9483A934231D002F5AC
:104D40008062934231D0A2F5687293422FD002F56F
:104D5000806293422DD0A2F5896293422BD002F556
:104D6000806293422AD0A2F56872934229D002F55C
:104D70008062934228D0A2F58962934227D002F53F
:104D80008062934226D0A2F56872934225D002F544
:104D90008062934202D04FF0807303E04FF480238F
:104DA00000E004234C4AD3600DE70423FAE7042310
:104DB000F8E70423F6E74FF48073F3E74FF48073CA
:104DC000F0E74FF48073EDE74FF48073EAE74FF4B8
:104DD0008023E7E74FF48023E4E74FF48023E1E703
:104DE0003E4A934231D002F58062934231D0A2F51F
:104DF000687293422FD002F5806293422DD0A2F5C3
:104E0000896293422BD002F5806293422AD0A2F5A8
:104E10006872934229D002F58062934228D0A2F5AD
:104E20008962934227D002F58062934226D0A2F590
:104E30006872934225D002F58062934202D04FF00F
:104E4000807303E04FF4802300E00423224A936040
:104E5000B9E60423FAE70423F8E70423F6E74FF45E
:104E60008073F3E74FF48073F0E74FF48073EDE75E
:104E70004FF48073EAE74FF48023E7E74FF4802391
:104E8000E4E74FF48023E1E74FF4803300E00123AF
:104E90000D4AD3602268136843F01603136022683A
:104EA000536943F080035361236C002B00F025818C
:104EB0002268136843F0080313602268136843F004
:104EC00001031360002038BD0064024058640240B2
:104ED000B86002405860024000600240106002402A
:104EE0000123D5E70123D3E70123D1E74023CFE70F
:104EF0004023CDE74023CBE74023C9E74FF480337D
:104F0000C6E74FF48033C3E74FF48033C0E77E4AEF
:104F100093424FD9A83A93422ED002F58062934231
:104F20002ED0A2F5687293422CD002F58062934293
:104F30002AD0A2F58962934228D002F5806293427A
:104F400026D0A2F56872934224D002F58062934283
:104F500022D0A2F58962934220D002F5806293426A
:104F60001FD0A2F5687293421ED002F58062934270
:104F70001DD14FF4803300E00123644A936089E738
:104F80000123FAE70123F8E70123F6E74023F4E7DA
:104F90004023F2E74023F0E74023EEE74FF480336D
:104FA000EBE74FF48033E8E74FF48033E5E74FF465
:104FB0008003E2E7564A93424FD9483A934231D0B0
:104FC00002F58062934231D0A2F5687293422FD0ED
:104FD00002F5806293422DD0A2F5896293422BD0D4
:104FE00002F58062934229D0A2F56872934227D0DD
:104FF00002F58062934225D0A2F58962934223D0C4
:1050000002F58062934222D0A2F56872934221D0C9
:1050100002F58062934202D04FF4800303E04FF424
:10502000803300E001233B4AD36033E70123FAE7F2
:105030000123F8E70123F6E74023F4E74023F2E7F2
:105040004023F0E74023EEE74FF48033EBE74FF4E3
:105050008033E8E74FF48033E5E72F4A934231D0BD
:1050600002F58062934231D0A2F5687293422FD04C
:1050700002F5806293422DD0A2F5896293422BD033
:1050800002F58062934229D0A2F56872934227D03C
:1050900002F58062934225D0A2F58962934223D023
:1050A00002F58062934222D0A2F56872934221D029
:1050B00002F58062934202D04FF4800303E04FF484
:1050C000803300E00123134A9360E3E60123FAE70B
:1050D0000123F8E70123F6E74023F4E74023F2E752
:1050E0004023F0E74023EEE74FF48033EBE74FF443
:1050F0008033E8E74FF48033E5E7A36C002B7FF4BF
:10510000D7AEDAE6022038BDB86002400064024043
:105110005860024000600240106002401AB103680B
:105120001961002070470368D960FAE7002861D050
:10513000002961D070B40A6802600A6802F01F009A
:105140000123834012F0007F15D08C6814F0010F0A
:1051500025D02A4DAC681C43AC608C6814F0020F5B
:1051600023D0264DEC681C43EC600C6804F0C0644E
:10517000B4F1C06F1FD04A6812F0010F2ED01F4843
:1051800002681A4302604A6812F0020F2CD11B49D0
:105190004A6822EA03034B60002070BC7047174D39
:1051A000AC6824EA0304AC60D7E7144DEC6824EA49
:1051B0000304EC60D9E78008114E023056F8204015
:1051C00002F0030292000F25954024EA0504CD6801
:1051D00005FA02F2224346F82020CCE7074802688D
:1051E00022EA03020260CEE704494A6813434B6097
:1051F0000020D2E70120704701207047003C0140A9
:105200000038014000284AD000294AD010B4006874
:10521000086000F01F040123A340234A12681342D0
:1052200022D001224A60204A5268134203D04A68C1
:1052300042F002024A6010F0007F2AD01A4A9268B7
:10524000134214D001228A60174AD268134203D055
:105250008B6843F002038B6000F0C063B3F1C06F52
:1052600008D00020C86017E000224A60DBE7002277
:105270008A60E9E7A30802330C4A52F82320E3438B
:1052800003F003039B0002FA03F31B0ECB60002024
:1052900002E000208860C8605DF8044B7047012080
:1052A00070470120704700BF003C014000380140BA
:1052B000002832D030B40446056805F01F000123F1
:1052C0008340184A1168DB43194011605168194046
:1052D0005160226812F0007F21D0124A9168194073
:1052E0009160D1680B40D360236803F0C063B3F1D1
:1052F000C06F01D0002013E080080B49023051F844
:10530000203005F00305AD000F2202FA05F523EA6F
:10531000050541F82050002002E0012070470020E0
:1053200030BC7047003C01400038014011B9426078
:10533000002070470120704710B1016000207047C5
:105340000120704708B5036803F01F020123934052
:10535000044A5269134204D0024A5361436803B1BC
:10536000984708BD003C0140006800F01F00012381
:105370008340034A5269134023FA00F0704700BF8C
:10538000003C0140026802F01F0201239340014AE1
:1053900053617047003C0140026802F01F02012384
:1053A0009340014A13617047003C014010B40A4920
:1053B0000C6924F440740C610C6944F440740C6171
:1053C0000C6944F001040C610260BFF36F8F43600D
:1053D0005DF8044B704700BF003C0240074B1A6960
:1053E00022F440721A611A6942F400721A611A6951
:1053F00042F001021A610160704700BF003C0240A8
:10540000074B1A6922F440721A611A6942F48072D9
:105410001A611A6942F001021A610180704700BFE7
:10542000003C0240064B1A6922F440721A611A6964
:105430001A611A6942F001021A610170704700BFD7
:10544000003C0240204BDB6813F0100F07D01F4ACE
:10545000D36943F01003D36110221B4BDA601A4B5F
:10546000DB6813F0200F07D0184AD36943F0080314
:10547000D3612022144BDA60134BDB6813F0400F2A
:1054800007D0124AD36943F00403D36140220E4B84
:10549000DA600D4BDB6813F0800F07D00B4AD3693D
:1054A00043F00203D3618022074BDA60064BDB68CE
:1054B00013F0020F07D0054AD36943F02003D361EC
:1054C0000222014BDA607047003C0240AC5E0020D3
:1054D00070B5194C247E012C2CD00D46044616497B
:1054E000012008761548066946F08076066106694F
:1054F00046F000760661032008704D6144B1012C2E
:105500000CD0022C10D02846FFF750FF002070BDB1
:10551000D1B22846FFF786FF002070BD91B2284621
:10552000FFF76EFF002070BD11462846FFF756FFBB
:10553000002070BD022070BDAC5E0020003C024027
:105540007047704710B53A4BDB6813F0F20F13D079
:10555000384B1B78DBB2012B3BD0364B1B78DBB2D0
:10556000022B3CD0334B5C69FFF76CFF2046FFF702
:10557000E8FF00222F4B1A702D4BDB6813F0010F50
:1055800013D001222A4BDA602A4B1B78DBB29342FC
:1055900028D0284B1B78DBB2022B41D0254B586911
:1055A000FFF7CEFF0022234B1A70224B1B787BB9EA
:1055B0001F4B1A6922F0FF021A611A6922F08072E9
:1055C0001A611A6922F000721A610022194B1A76C8
:1055D00010BD184BDC684FF0FF32DA60C4E7154BA2
:1055E0001C69C1E7134B5A68013A5A605B685BB1AA
:1055F000104CE068FFF7A4FFE3680133E360E06864
:10560000217A00F0C2F9D0E70A4B4FF0FF34DC609A
:1056100000221A7000F018FA2046FFF791FFC4E745
:1056200000F012FA034B1869FFF78AFFBAE700BFD0
:10563000003C0240AC5E0020094B1B69002B01DBE3
:1056400000207047064B074A5A6002F188325A60C0
:105650001B69002B01DB002070470120704700BF51
:10566000003C024023016745034A136943F00043AD
:1056700013610020704700BF003C0240074B5B698C
:1056800013F0010F07D0054B054A9A6002F144322E
:105690009A60002070470120704700BF003C024024
:1056A0003B2A1908034A536943F001035361002060
:1056B000704700BF003C0240014BD869704700BFF3
:1056C000AC5E002038B504460022154BDA61FBF7CA
:1056D00099FE0546134BDB6813F4803F0AD0B4F102
:1056E000FF3FF7D0CCB1FBF78DFE401B8442F1D2D7
:1056F000032038BD0B4BDB6813F0010F02D00122F1
:10570000084BDA60074BDB6813F0F20F01D1002081
:1057100038BDFFF797FE012038BD032038BD00BF1C
:10572000AC5E0020003C02402DE9F0411D4C247E7F
:10573000012C03D102242046BDE8F081984617468B
:105740000E4605460122174B1A764CF25030FFF7F1
:10575000B9FF044698B9B5B1012D19D0022D1CD05E
:105760003A4643463046FFF721FE4CF25030FFF7F1
:10577000A9FF04460C4A136923F0010313610022B8
:10578000084B1A76D7E7F9B23046FFF74BFEECE745
:10579000B9B23046FFF734FEE7E739463046FFF747
:1057A0001DFEE2E7AC5E0020003C024008B5054A61
:1057B000137843F0020313704CF25030FFF782FF6E
:1057C00008BD00BF143C0240074B1A6922F4407226
:1057D0001A611A6942F004021A611A6942EA002049
:1057E00040F4803018617047003C0240044B1A7846
:1057F00002F0F3021A701A781043187000207047F4
:10580000143C0240024B586900F0E000704700BFB2
:10581000003C0240014B188880B27047163C0240A1
:10582000074B1B78DBB2CC2B08D0054B1B78DBB2C7
:10583000AA2B01D055207047AA207047CC20704772
:10584000153C0240024B187800F00C00704700BF76
:10585000143C024010B504464CF25030FFF732FFC2
:10586000034628B9034A108880B220EA0400108059
:10587000184610BD163C024010B504464CF250309C
:10588000FFF720FF034628B9034A108880B2A4B26C
:1058900020431080184610BD163C024010B5044647
:1058A0004CF25030FFF70EFF034608B9014A14705E
:1058B000184610BD153C024070B504460E4615460C
:1058C0004CF25030FFF7FEFE034638B9044A107818
:1058D00000F01F003043284320431070184670BD6D
:1058E000143C02401F4B1B7E012B38D010B50446E0
:1058F00001221C4B1A76036813F0010F0CD0436889
:10590000934204D0C1688068FFF7B6FF05E0C16824
:105910008068FFF79FFF00E00120236813F0020F6B
:105920000BD1236813F0040F0BD1236813F0080F79
:1059300011D100220B4B1A7610BD207CFFF7AEFF71
:10594000EFE7207E00F0800200F0400100F0200030
:10595000FFF7B2FFE9E7207DFFF748FFE9E7022004
:10596000704700BFAC5E002010B504460F230360F3
:10597000FFF750FFA060FFF753FF2061FFF742FFE2
:105980002076FFF75FFF606110BDF9B101291FD0DC
:10599000022918D04FF440710F4B1A6922F440725B
:1059A0001A611A690A431A611A6922F0F8021A6127
:1059B0001A6942EAC00040F0020018611A6942F414
:1059C00080321A6170474FF40071E5E70021E3E788
:1059D0004FF48071E0E700BF003C024008B5184B6F
:1059E0001B7E012B29D00122154B1A76154B1A6903
:1059F00042F080721A611A6942F000721A61F32251
:105A0000DA600368012B0DD00D4B01221A70C268B9
:105A10005A608268DA60017C19728068FFF7B5FF0E
:105A2000002008BD064B02221A7042681A614168C4
:105A3000007CFFF7C9FE002008BD022008BD00BFA2
:105A4000AC5E0020003C0240164B1B6813F4007F44
:105A500010D0144B1A6822F400721A601A6842F4CB
:105A600000621A601A6822F400621A601A6842F42E
:105A700000721A600B4B1B6813F4806F10D0094B37
:105A80001A6822F480621A601A6842F480521A601E
:105A90001A6822F480521A601A6842F480621A600E
:105AA000704700BF003C0240F8B5224B1B7E012B23
:105AB00002D102273846F8BD0E46044601221D4B8E
:105AC0001A764CF25030FFF7FDFD074670BB4FF0E1
:105AD000FF3333602368012B16D0A568E368A26802
